{
  "contractName": "Election",
  "abi": [
    {
      "constant": false,
      "inputs": [
        {
          "name": "_candidateId",
          "type": "string"
        },
        {
          "name": "_username",
          "type": "string"
        },
        {
          "name": "_electionName",
          "type": "string"
        }
      ],
      "name": "setVote",
      "outputs": [
        {
          "name": "",
          "type": "string"
        }
      ],
      "payable": false,
      "stateMutability": "nonpayable",
      "type": "function",
      "signature": "0x114d3f23"
    },
    {
      "constant": true,
      "inputs": [
        {
          "name": "_id",
          "type": "string"
        }
      ],
      "name": "getVote",
      "outputs": [
        {
          "name": "",
          "type": "uint256"
        }
      ],
      "payable": false,
      "stateMutability": "view",
      "type": "function",
      "signature": "0xbaa40e5c"
    },
    {
      "constant": true,
      "inputs": [
        {
          "name": "_username",
          "type": "string"
        },
        {
          "name": "index",
          "type": "uint256"
        }
      ],
      "name": "getVoteForCandidate",
      "outputs": [
        {
          "name": "",
          "type": "string"
        }
      ],
      "payable": false,
      "stateMutability": "view",
      "type": "function",
      "signature": "0x9d91b7b5"
    },
    {
      "constant": true,
      "inputs": [
        {
          "name": "_username",
          "type": "string"
        }
      ],
      "name": "getVoteForCandidateLength",
      "outputs": [
        {
          "name": "",
          "type": "uint256"
        }
      ],
      "payable": false,
      "stateMutability": "view",
      "type": "function",
      "signature": "0x2e2de77b"
    }
  ],
  "bytecode": "0x60806040526000805534801561001457600080fd5b50610dde806100246000396000f3fe6080604052600436106100615763ffffffff7c0100000000000000000000000000000000000000000000000000000000600035041663114d3f2381146100665780632e2de77b1461029c5780639d91b7b514610361578063baa40e5c14610416575b600080fd5b34801561007257600080fd5b506102276004803603606081101561008957600080fd5b8101906020810181356401000000008111156100a457600080fd5b8201836020820111156100b657600080fd5b803590602001918460018302840111640100000000831117156100d857600080fd5b91908080601f016020809104026020016040519081016040528093929190818152602001838380828437600092019190915250929594936020810193503591505064010000000081111561012b57600080fd5b82018360208201111561013d57600080fd5b8035906020019184600183028401116401000000008311171561015f57600080fd5b91908080601f01602080910402602001604051908101604052809392919081815260200183838082843760009201919091525092959493602081019350359150506401000000008111156101b257600080fd5b8201836020820111156101c457600080fd5b803590602001918460018302840111640100000000831117156101e657600080fd5b91908080601f0160208091040260200160405190810160405280939291908181526020018383808284376000920191909152509295506104c9945050505050565b6040805160208082528351818301528351919283929083019185019080838360005b83811015610261578181015183820152602001610249565b50505050905090810190601f16801561028e5780820380516001836020036101000a031916815260200191505b509250505060405180910390f35b3480156102a857600080fd5b5061034f600480360360208110156102bf57600080fd5b8101906020810181356401000000008111156102da57600080fd5b8201836020820111156102ec57600080fd5b8035906020019184600183028401116401000000008311171561030e57600080fd5b91908080601f016020809104026020016040519081016040528093929190818152602001838380828437600092019190915250929550610a77945050505050565b60408051918252519081900360200190f35b34801561036d57600080fd5b506102276004803603604081101561038457600080fd5b81019060208101813564010000000081111561039f57600080fd5b8201836020820111156103b157600080fd5b803590602001918460018302840111640100000000831117156103d357600080fd5b91908080601f0160208091040260200160405190810160405280939291908181526020018383808284376000920191909152509295505091359250610adf915050565b34801561042257600080fd5b5061034f6004803603602081101561043957600080fd5b81019060208101813564010000000081111561045457600080fd5b82018360208201111561046657600080fd5b8035906020019184600183028401116401000000008311171561048857600080fd5b91908080601f016020809104026020016040519081016040528093929190818152602001838380828437600092019190915250929550610be9945050505050565b60606001846040518082805190602001908083835b602083106104fd5780518252601f1990920191602091820191016104de565b51815160209384036101000a600019018019909216911617905292019485525060405193849003810184206001908101805490910190558551600294879450925082918401908083835b602083106105665780518252601f199092019160209182019101610547565b51815160209384036101000a600019018019909216911617905292019485525060405193849003019092206001015415159150610787905057816002836040518082805190602001908083835b602083106105d25780518252601f1990920191602091820191016105b3565b51815160209384036101000a600019018019909216911617905292019485525060405193849003810190932084516106139591949190910192509050610c54565b506040805190810160405280848152602001858152506002836040518082805190602001908083835b6020831061065b5780518252601f19909201916020918201910161063c565b51815160209384036101000a600019018019909216911617905292019485525060405193849003810184208851600290910194899450925082918401908083835b602083106106bb5780518252601f19909201916020918201910161069c565b51815160209384036101000a60001901801990921691161790529201948552506040519384900381019093208451805191946106fc94508593500190610c54565b5060208281015180516107159260018501920190610c54565b5090505060016002836040518082805190602001908083835b6020831061074d5780518252601f19909201916020918201910161072e565b51815160209384036101000a6000190180199092169116179052920194855250604051938490030190922060010192909255506108f89050565b6040805190810160405280848152602001858152506002836040518082805190602001908083835b602083106107ce5780518252601f1990920191602091820191016107af565b51815160209384036101000a600019018019909216911617905292019485525060405193849003810184208851600290910194899450925082918401908083835b6020831061082e5780518252601f19909201916020918201910161080f565b51815160209384036101000a600019018019909216911617905292019485525060405193849003810190932084518051919461086f94508593500190610c54565b5060208281015180516108889260018501920190610c54565b509050506002826040518082805190602001908083835b602083106108be5780518252601f19909201916020918201910161089f565b51815160209384036101000a6000190180199092169116179052920194855250604051938490030190922060019081018054909101905550505b60006003846040518082805190602001908083835b6020831061092c5780518252601f19909201916020918201910161090d565b51815160209384036101000a6000190180199092169116179052920194855250604051938490030190922054929092111591506109f19050576003836040518082805190602001908083835b602083106109975780518252601f199092019160209182019101610978565b51815160209384036101000a6000190180199092169116179052920194855250604051938490038101909320805460018101808355600092835291859020895192956109ea955091019250880190610c54565b5050610a70565b602060405190810160405280858152506003846040518082805190602001908083835b60208310610a335780518252601f199092019160209182019101610a14565b51815160209384036101000a60001901801990921691161790529201948552506040519384900301909220610a6e9390925090506001610cd2565b505b9392505050565b60006003826040518082805190602001908083835b60208310610aab5780518252601f199092019160209182019101610a8c565b51815160209384036101000a6000190180199092169116179052920194855250604051938490030190922054949350505050565b60606003836040518082805190602001908083835b60208310610b135780518252601f199092019160209182019101610af4565b51815160209384036101000a6000190180199092169116179052920194855250604051938490030190922080549092508491508110610b4e57fe5b600091825260209182902001805460408051601f6002600019610100600187161502019094169390930492830185900485028101850190915281815292830182828015610bdc5780601f10610bb157610100808354040283529160200191610bdc565b820191906000526020600020905b815481529060010190602001808311610bbf57829003601f168201915b5050505050905092915050565b60006001826040518082805190602001908083835b60208310610c1d5780518252601f199092019160209182019101610bfe565b51815160209384036101000a6000190180199092169116179052920194855250604051938490030190922060010154949350505050565b828054600181600116156101000203166002900490600052602060002090601f016020900481019282601f10610c9557805160ff1916838001178555610cc2565b82800160010185558215610cc2579182015b82811115610cc2578251825591602001919060010190610ca7565b50610cce929150610d2b565b5090565b828054828255906000526020600020908101928215610d1f579160200282015b82811115610d1f5782518051610d0f918491602090910190610c54565b5091602001919060010190610cf2565b50610cce929150610d48565b610d4591905b80821115610cce5760008155600101610d31565b90565b610d4591905b80821115610cce576000610d628282610d6b565b50600101610d4e565b50805460018160011615610100020316600290046000825580601f10610d915750610daf565b601f016020900490600052602060002090810190610daf9190610d2b565b5056fea165627a7a7230582092d7ff4844ba29ace95d9cbaa31c3cc341003957223ca60fd9c4df4b015685150029",
  "source": "pragma solidity ^0.5.0;\r\ncontract Election {\r\n    uint electionCount=0;\r\n    struct CandidateInfo {\r\n        string id;\r\n        uint vote;\r\n    }\r\n    struct UserVoteInfo{\r\n      string id;\r\n      string candidateId;\r\n    }\r\n    struct ElectionUserInfo{\r\n      string electionName;\r\n      uint cnt;\r\n      mapping(string => UserVoteInfo) users;\r\n    }\r\n    mapping(string => CandidateInfo) candidatesVote;\r\n    mapping(string => ElectionUserInfo) electionUsers;\r\n\r\n    struct UserVoteInfo1{\r\n      uint votesCnt;\r\n      string[] isvote;\r\n    }\r\n    mapping(string => string[]) userVotes ;\r\n    function setVote(string memory _candidateId,string memory _username,string memory _electionName) public returns(string memory){\r\n    candidatesVote[_candidateId].vote++;\r\n    \r\n   if(electionUsers[_electionName].cnt==0){\r\n      electionUsers[_electionName].electionName=_electionName;\r\n      electionUsers[_electionName].users[_username]=UserVoteInfo(_username,_candidateId);\r\n      electionUsers[_electionName].cnt=1;\r\n      // electionUsers[_electionName]=electionUser;\r\n    }else{\r\n      electionUsers[_electionName].users[_username]=UserVoteInfo(_username,_candidateId);\r\n      electionUsers[_electionName].cnt++;\r\n    }\r\n      if(userVotes[_username].length>0)\r\n        userVotes[_username].push(_candidateId);\r\n      else\r\n        userVotes[_username]=[_candidateId];\r\n    }\r\n  function getVote(string memory _id) public view returns(uint)  {\r\n    return candidatesVote[_id].vote;\r\n  }\r\n  function getVoteForCandidate(string memory _username,uint  index) public view returns(string memory)  {\r\n    return userVotes[_username][index];\r\n  }\r\n  function getVoteForCandidateLength(string memory _username) public view returns(uint)  {\r\n    return userVotes[_username].length;\r\n  }\r\n  \r\n}",
  "sourcePath": "C:/voting-app/contracts/Election.sol",
  "compiler": {
    "name": "solc",
    "version": "0.5.0+commit.1d4f565a.Emscripten.clang"
  },
  "schemaVersion": "3.0.1",
  "updatedAt": "2022-05-15T13:41:49.930Z",
  "devdoc": {
    "methods": {}
  },
  "userdoc": {
    "methods": {}
  }
}